{
  "contractName": "DAO",
  "abi": [
    {
      "inputs": [
        {
          "internalType": "uint256",
          "name": "contributionTime",
          "type": "uint256"
        }
      ],
      "stateMutability": "nonpayable",
      "type": "constructor"
    },
    {
      "inputs": [],
      "name": "contributionEnd",
      "outputs": [
        {
          "internalType": "uint256",
          "name": "",
          "type": "uint256"
        }
      ],
      "stateMutability": "view",
      "type": "function"
    },
    {
      "inputs": [
        {
          "internalType": "address",
          "name": "",
          "type": "address"
        }
      ],
      "name": "isInvestor",
      "outputs": [
        {
          "internalType": "bool",
          "name": "",
          "type": "bool"
        }
      ],
      "stateMutability": "view",
      "type": "function"
    },
    {
      "inputs": [
        {
          "internalType": "address",
          "name": "",
          "type": "address"
        }
      ],
      "name": "shares",
      "outputs": [
        {
          "internalType": "uint256",
          "name": "",
          "type": "uint256"
        }
      ],
      "stateMutability": "view",
      "type": "function"
    },
    {
      "inputs": [],
      "name": "totalBalance",
      "outputs": [
        {
          "internalType": "uint256",
          "name": "",
          "type": "uint256"
        }
      ],
      "stateMutability": "view",
      "type": "function"
    },
    {
      "inputs": [],
      "name": "totalShares",
      "outputs": [
        {
          "internalType": "uint256",
          "name": "",
          "type": "uint256"
        }
      ],
      "stateMutability": "view",
      "type": "function"
    },
    {
      "inputs": [],
      "name": "contribute",
      "outputs": [],
      "stateMutability": "payable",
      "type": "function"
    }
  ],
  "bytecode": "0x608060405234801561001057600080fd5b506040516106a83803806106a883398181016040528101906100329190610085565b804261003e91906100e1565b60048190555050610137565b600080fd5b6000819050919050565b6100628161004f565b811461006d57600080fd5b50565b60008151905061007f81610059565b92915050565b60006020828403121561009b5761009a61004a565b5b60006100a984828501610070565b91505092915050565b7f4e487b7100000000000000000000000000000000000000000000000000000000600052601160045260246000fd5b60006100ec8261004f565b91506100f78361004f565b9250827fffffffffffffffffffffffffffffffffffffffffffffffffffffffffffffffff0382111561012c5761012b6100b2565b5b828201905092915050565b610562806101466000396000f3fe6080604052600436106100555760003560e01c80633a98ef391461005a578063ad7a672f14610085578063ce7c2ac2146100b0578063cee2a9cf146100ed578063d151b5161461012a578063d7bb99ba14610155575b600080fd5b34801561006657600080fd5b5061006f61015f565b60405161007c91906102e9565b60405180910390f35b34801561009157600080fd5b5061009a610165565b6040516100a791906102e9565b60405180910390f35b3480156100bc57600080fd5b506100d760048036038101906100d29190610367565b61016b565b6040516100e491906102e9565b60405180910390f35b3480156100f957600080fd5b50610114600480360381019061010f9190610367565b610183565b60405161012191906103af565b60405180910390f35b34801561013657600080fd5b5061013f6101a3565b60405161014c91906102e9565b60405180910390f35b61015d6101a9565b005b60025481565b60035481565b60016020528060005260406000206000915090505481565b60006020528060005260406000206000915054906101000a900460ff1681565b60045481565b60045442106101ed576040517f08c379a00000000000000000000000000000000000000000000000000000000081526004016101e490610427565b60405180910390fd5b34600360008282546101ff9190610476565b9250508190555060016000803373ffffffffffffffffffffffffffffffffffffffff1673ffffffffffffffffffffffffffffffffffffffff16815260200190815260200160002060006101000a81548160ff021916908315150217905550670de0b6b3a76400003461027191906104fb565b600281905550670de0b6b3a76400003461028b91906104fb565b600160003373ffffffffffffffffffffffffffffffffffffffff1673ffffffffffffffffffffffffffffffffffffffff16815260200190815260200160002081905550565b6000819050919050565b6102e3816102d0565b82525050565b60006020820190506102fe60008301846102da565b92915050565b600080fd5b600073ffffffffffffffffffffffffffffffffffffffff82169050919050565b600061033482610309565b9050919050565b61034481610329565b811461034f57600080fd5b50565b6000813590506103618161033b565b92915050565b60006020828403121561037d5761037c610304565b5b600061038b84828501610352565b91505092915050565b60008115159050919050565b6103a981610394565b82525050565b60006020820190506103c460008301846103a0565b92915050565b600082825260208201905092915050565b7f54686520636f6e747269627574696f6e20706572696f64206973206f76657200600082015250565b6000610411601f836103ca565b915061041c826103db565b602082019050919050565b6000602082019050818103600083015261044081610404565b9050919050565b7f4e487b7100000000000000000000000000000000000000000000000000000000600052601160045260246000fd5b6000610481826102d0565b915061048c836102d0565b9250827fffffffffffffffffffffffffffffffffffffffffffffffffffffffffffffffff038211156104c1576104c0610447565b5b828201905092915050565b7f4e487b7100000000000000000000000000000000000000000000000000000000600052601260045260246000fd5b6000610506826102d0565b9150610511836102d0565b925082610521576105206104cc565b5b82820490509291505056fea2646970667358221220031ea825f8754bf2ea26fc264bdd983e6ce7a15c81c60a66795e560e80a51d3864736f6c634300080f0033",
  "immutableReferences": {},
  "source": "pragma solidity 0.8.15;\n\ncontract DAO {\n\n// variables //\nmapping(address=>bool) public isInvestor ;\nmapping (address=>uint) public shares;\nuint public totalShares;\nuint public totalBalance;\nuint public contributionEnd;\n\n\n//constructor//\nconstructor (uint contributionTime) {\n    contributionEnd = block.timestamp + contributionTime; \n\n}\n //functions //\n\n function contribute () external payable {\n    require(block.timestamp < contributionEnd, \"The contribution period is over\");\n    totalBalance+=msg.value;\n    isInvestor[msg.sender]=true;\n    totalShares= msg.value/ 1 ether;\n    shares[msg.sender] = msg.value/ 1 ether;\n }\n\n\n\n}",
  "sourcePath": "/Users/petartodorov/Desktop/coding/solidity/Dapp30/DAO/contracts/DAO.sol",
  "compiler": {
    "name": "solc",
    "version": "0.8.15+commit.e14f2714.Emscripten.clang"
  },
  "schemaVersion": "3.4.8",
  "updatedAt": "2022-08-25T10:14:23.235Z",
  "devdoc": {
    "kind": "dev",
    "methods": {},
    "version": 1
  },
  "userdoc": {
    "kind": "user",
    "methods": {},
    "version": 1
  }
}