{
  "contractName": "DAO",
  "abi": [
    {
      "inputs": [
        {
          "internalType": "uint256",
          "name": "contributionTime",
          "type": "uint256"
        }
      ],
      "stateMutability": "nonpayable",
      "type": "constructor"
    },
    {
      "inputs": [],
      "name": "admin",
      "outputs": [
        {
          "internalType": "address",
          "name": "",
          "type": "address"
        }
      ],
      "stateMutability": "view",
      "type": "function"
    },
    {
      "inputs": [],
      "name": "availableFunds",
      "outputs": [
        {
          "internalType": "uint256",
          "name": "",
          "type": "uint256"
        }
      ],
      "stateMutability": "view",
      "type": "function"
    },
    {
      "inputs": [],
      "name": "contributionEnd",
      "outputs": [
        {
          "internalType": "uint256",
          "name": "",
          "type": "uint256"
        }
      ],
      "stateMutability": "view",
      "type": "function"
    },
    {
      "inputs": [
        {
          "internalType": "address",
          "name": "",
          "type": "address"
        }
      ],
      "name": "isInvestor",
      "outputs": [
        {
          "internalType": "bool",
          "name": "",
          "type": "bool"
        }
      ],
      "stateMutability": "view",
      "type": "function"
    },
    {
      "inputs": [],
      "name": "nextProposalId",
      "outputs": [
        {
          "internalType": "uint256",
          "name": "",
          "type": "uint256"
        }
      ],
      "stateMutability": "view",
      "type": "function"
    },
    {
      "inputs": [
        {
          "internalType": "uint256",
          "name": "",
          "type": "uint256"
        }
      ],
      "name": "proposals",
      "outputs": [
        {
          "internalType": "uint256",
          "name": "id",
          "type": "uint256"
        },
        {
          "internalType": "string",
          "name": "name",
          "type": "string"
        },
        {
          "internalType": "uint256",
          "name": "amount",
          "type": "uint256"
        },
        {
          "internalType": "address payable",
          "name": "proposalAddress",
          "type": "address"
        },
        {
          "internalType": "uint256",
          "name": "votes",
          "type": "uint256"
        },
        {
          "internalType": "uint256",
          "name": "end",
          "type": "uint256"
        },
        {
          "internalType": "bool",
          "name": "isExecuted",
          "type": "bool"
        }
      ],
      "stateMutability": "view",
      "type": "function"
    },
    {
      "inputs": [],
      "name": "quorum",
      "outputs": [
        {
          "internalType": "uint256",
          "name": "",
          "type": "uint256"
        }
      ],
      "stateMutability": "view",
      "type": "function"
    },
    {
      "inputs": [
        {
          "internalType": "address",
          "name": "",
          "type": "address"
        }
      ],
      "name": "shares",
      "outputs": [
        {
          "internalType": "uint256",
          "name": "",
          "type": "uint256"
        }
      ],
      "stateMutability": "view",
      "type": "function"
    },
    {
      "inputs": [],
      "name": "totalShares",
      "outputs": [
        {
          "internalType": "uint256",
          "name": "",
          "type": "uint256"
        }
      ],
      "stateMutability": "view",
      "type": "function"
    },
    {
      "inputs": [],
      "name": "voteTime",
      "outputs": [
        {
          "internalType": "uint256",
          "name": "",
          "type": "uint256"
        }
      ],
      "stateMutability": "view",
      "type": "function"
    },
    {
      "inputs": [
        {
          "internalType": "address",
          "name": "",
          "type": "address"
        },
        {
          "internalType": "uint256",
          "name": "",
          "type": "uint256"
        }
      ],
      "name": "votes",
      "outputs": [
        {
          "internalType": "bool",
          "name": "",
          "type": "bool"
        }
      ],
      "stateMutability": "view",
      "type": "function"
    },
    {
      "inputs": [
        {
          "internalType": "string",
          "name": "_name",
          "type": "string"
        },
        {
          "internalType": "uint256",
          "name": "_amount",
          "type": "uint256"
        },
        {
          "internalType": "address payable",
          "name": "_proposalAddress",
          "type": "address"
        }
      ],
      "name": "createProposal",
      "outputs": [],
      "stateMutability": "nonpayable",
      "type": "function"
    },
    {
      "inputs": [
        {
          "internalType": "uint256",
          "name": "proposalId",
          "type": "uint256"
        }
      ],
      "name": "vote",
      "outputs": [],
      "stateMutability": "nonpayable",
      "type": "function"
    },
    {
      "inputs": [],
      "name": "contribute",
      "outputs": [],
      "stateMutability": "payable",
      "type": "function"
    },
    {
      "inputs": [
        {
          "internalType": "uint256",
          "name": "_amount",
          "type": "uint256"
        }
      ],
      "name": "redeemShare",
      "outputs": [],
      "stateMutability": "nonpayable",
      "type": "function"
    },
    {
      "inputs": [
        {
          "internalType": "uint256",
          "name": "_amount",
          "type": "uint256"
        },
        {
          "internalType": "address",
          "name": "_to",
          "type": "address"
        }
      ],
      "name": "transferShare",
      "outputs": [],
      "stateMutability": "nonpayable",
      "type": "function"
    }
  ],
  "bytecode": "0x60806040523480156200001157600080fd5b5060405162001dee38038062001dee833981810160405281019062000037919062000092565b8042620000459190620000f3565b6006819055505062000150565b600080fd5b6000819050919050565b6200006c8162000057565b81146200007857600080fd5b50565b6000815190506200008c8162000061565b92915050565b600060208284031215620000ab57620000aa62000052565b5b6000620000bb848285016200007b565b91505092915050565b7f4e487b7100000000000000000000000000000000000000000000000000000000600052601160045260246000fd5b6000620001008262000057565b91506200010d8362000057565b9250827fffffffffffffffffffffffffffffffffffffffffffffffffffffffffffffffff03821115620001455762000144620000c4565b5b828201905092915050565b611c8e80620001606000396000f3fe6080604052600436106100f35760003560e01c8063868643df1161008a578063cee2a9cf11610059578063cee2a9cf14610330578063d151b5161461036d578063d7bb99ba14610398578063f851a440146103a2576100f3565b8063868643df146102625780639f2524ee1461028b578063bcf93dd6146102c8578063ce7c2ac2146102f3576100f3565b80632ab09d14116100c65780632ab09d14146101b85780633a98ef39146101e357806346fcff4c1461020e5780636ac1e01f14610239576100f3565b80630121b93f146100f8578063013cf08b14610121578063039383e6146101645780631703a0181461018d575b600080fd5b34801561010457600080fd5b5061011f600480360381019061011a9190610f05565b6103cd565b005b34801561012d57600080fd5b5061014860048036038101906101439190610f05565b61061f565b60405161015b9796959493929190611036565b60405180910390f35b34801561017057600080fd5b5061018b600480360381019061018691906110ea565b610716565b005b34801561019957600080fd5b506101a261089f565b6040516101af919061112a565b60405180910390f35b3480156101c457600080fd5b506101cd6108a5565b6040516101da919061112a565b60405180910390f35b3480156101ef57600080fd5b506101f86108ab565b604051610205919061112a565b60405180910390f35b34801561021a57600080fd5b506102236108b1565b604051610230919061112a565b60405180910390f35b34801561024557600080fd5b50610260600480360381019061025b91906112a6565b6108b7565b005b34801561026e57600080fd5b5061028960048036038101906102849190610f05565b610b68565b005b34801561029757600080fd5b506102b260048036038101906102ad9190611315565b610cfb565b6040516102bf9190611355565b60405180910390f35b3480156102d457600080fd5b506102dd610d2a565b6040516102ea919061112a565b60405180910390f35b3480156102ff57600080fd5b5061031a60048036038101906103159190611370565b610d30565b604051610327919061112a565b60405180910390f35b34801561033c57600080fd5b5061035760048036038101906103529190611370565b610d48565b6040516103649190611355565b60405180910390f35b34801561037957600080fd5b50610382610d68565b60405161038f919061112a565b60405180910390f35b6103a0610d6e565b005b3480156103ae57600080fd5b506103b7610e95565b6040516103c491906113ac565b60405180910390f35b600115156000803373ffffffffffffffffffffffffffffffffffffffff1673ffffffffffffffffffffffffffffffffffffffff16815260200190815260200160002060009054906101000a900460ff1615151461045f576040517f08c379a000000000000000000000000000000000000000000000000000000000815260040161045690611439565b60405180910390fd5b600060026000838152602001908152602001600020905060001515600360003373ffffffffffffffffffffffffffffffffffffffff1673ffffffffffffffffffffffffffffffffffffffff168152602001908152602001600020600084815260200190815260200160002060009054906101000a900460ff1615151461051a576040517f08c379a0000000000000000000000000000000000000000000000000000000008152600401610511906114cb565b60405180910390fd5b80600501544210610560576040517f08c379a000000000000000000000000000000000000000000000000000000000815260040161055790611537565b60405180910390fd5b60011515600360003373ffffffffffffffffffffffffffffffffffffffff1673ffffffffffffffffffffffffffffffffffffffff168152602001908152602001600020600084815260200190815260200160002060009054906101000a90505050600160003373ffffffffffffffffffffffffffffffffffffffff1673ffffffffffffffffffffffffffffffffffffffff168152602001908152602001600020548160040160008282546106149190611586565b925050819055505050565b60026020528060005260406000206000915090508060000154908060010180546106489061160b565b80601f01602080910402602001604051908101604052809291908181526020018280546106749061160b565b80156106c15780601f10610696576101008083540402835291602001916106c1565b820191906000526020600020905b8154815290600101906020018083116106a457829003601f168201915b5050505050908060020154908060030160009054906101000a900473ffffffffffffffffffffffffffffffffffffffff16908060040154908060050154908060060160009054906101000a900460ff16905087565b81600160003373ffffffffffffffffffffffffffffffffffffffff1673ffffffffffffffffffffffffffffffffffffffff168152602001908152602001600020541015610798576040517f08c379a000000000000000000000000000000000000000000000000000000000815260040161078f90611688565b60405180910390fd5b81600160003373ffffffffffffffffffffffffffffffffffffffff1673ffffffffffffffffffffffffffffffffffffffff16815260200190815260200160002060008282546107e791906116a8565b9250508190555081600160008373ffffffffffffffffffffffffffffffffffffffff1673ffffffffffffffffffffffffffffffffffffffff168152602001908152602001600020600082825461083d9190611586565b9250508190555060016000808373ffffffffffffffffffffffffffffffffffffffff1673ffffffffffffffffffffffffffffffffffffffff16815260200190815260200160002060006101000a81548160ff0219169083151502179055505050565b60095481565b60075481565b60045481565b60055481565b600115156000803373ffffffffffffffffffffffffffffffffffffffff1673ffffffffffffffffffffffffffffffffffffffff16815260200190815260200160002060009054906101000a900460ff16151514610949576040517f08c379a000000000000000000000000000000000000000000000000000000000815260040161094090611439565b60405180910390fd5b6000803373ffffffffffffffffffffffffffffffffffffffff1673ffffffffffffffffffffffffffffffffffffffff16815260200190815260200160002060009054906101000a900460ff166109d4576040517f08c379a00000000000000000000000000000000000000000000000000000000081526004016109cb90611728565b60405180910390fd5b816005541115610a19576040517f08c379a0000000000000000000000000000000000000000000000000000000008152600401610a10906117e0565b60405180910390fd5b6040518060e0016040528060075481526020018481526020018381526020018273ffffffffffffffffffffffffffffffffffffffff1681526020016000815260200160085442610a699190611586565b815260200160001515815250600260006007548152602001908152602001600020600082015181600001556020820151816001019081610aa991906119ac565b506040820151816002015560608201518160030160006101000a81548173ffffffffffffffffffffffffffffffffffffffff021916908373ffffffffffffffffffffffffffffffffffffffff1602179055506080820151816004015560a0820151816005015560c08201518160060160006101000a81548160ff0219169083151502179055509050508160056000828254610b4491906116a8565b9250508190555060076000815480929190610b5e90611a7e565b9190505550505050565b80600160003373ffffffffffffffffffffffffffffffffffffffff1673ffffffffffffffffffffffffffffffffffffffff168152602001908152602001600020541015610bea576040517f08c379a0000000000000000000000000000000000000000000000000000000008152600401610be190611688565b60405180910390fd5b806005541015610c2f576040517f08c379a0000000000000000000000000000000000000000000000000000000008152600401610c2690611b12565b60405180910390fd5b80600160003373ffffffffffffffffffffffffffffffffffffffff1673ffffffffffffffffffffffffffffffffffffffff1681526020019081526020016000206000828254610c7e91906116a8565b925050819055508060056000828254610c9791906116a8565b925050819055503373ffffffffffffffffffffffffffffffffffffffff166108fc670de0b6b3a764000083610ccc9190611b32565b9081150290604051600060405180830381858888f19350505050158015610cf7573d6000803e3d6000fd5b5050565b60036020528160005260406000206020528060005260406000206000915091509054906101000a900460ff1681565b60085481565b60016020528060005260406000206000915090505481565b60006020528060005260406000206000915054906101000a900460ff1681565b60065481565b6006544210610db2576040517f08c379a0000000000000000000000000000000000000000000000000000000008152600401610da990611bd8565b60405180910390fd5b3460056000828254610dc49190611586565b9250508190555060016000803373ffffffffffffffffffffffffffffffffffffffff1673ffffffffffffffffffffffffffffffffffffffff16815260200190815260200160002060006101000a81548160ff021916908315150217905550670de0b6b3a764000034610e369190611c27565b600481905550670de0b6b3a764000034610e509190611c27565b600160003373ffffffffffffffffffffffffffffffffffffffff1673ffffffffffffffffffffffffffffffffffffffff16815260200190815260200160002081905550565b600a60009054906101000a900473ffffffffffffffffffffffffffffffffffffffff1681565b6000604051905090565b600080fd5b600080fd5b6000819050919050565b610ee281610ecf565b8114610eed57600080fd5b50565b600081359050610eff81610ed9565b92915050565b600060208284031215610f1b57610f1a610ec5565b5b6000610f2984828501610ef0565b91505092915050565b610f3b81610ecf565b82525050565b600081519050919050565b600082825260208201905092915050565b60005b83811015610f7b578082015181840152602081019050610f60565b83811115610f8a576000848401525b50505050565b6000601f19601f8301169050919050565b6000610fac82610f41565b610fb68185610f4c565b9350610fc6818560208601610f5d565b610fcf81610f90565b840191505092915050565b600073ffffffffffffffffffffffffffffffffffffffff82169050919050565b600061100582610fda565b9050919050565b61101581610ffa565b82525050565b60008115159050919050565b6110308161101b565b82525050565b600060e08201905061104b600083018a610f32565b818103602083015261105d8189610fa1565b905061106c6040830188610f32565b611079606083018761100c565b6110866080830186610f32565b61109360a0830185610f32565b6110a060c0830184611027565b98975050505050505050565b60006110b782610fda565b9050919050565b6110c7816110ac565b81146110d257600080fd5b50565b6000813590506110e4816110be565b92915050565b6000806040838503121561110157611100610ec5565b5b600061110f85828601610ef0565b9250506020611120858286016110d5565b9150509250929050565b600060208201905061113f6000830184610f32565b92915050565b600080fd5b600080fd5b7f4e487b7100000000000000000000000000000000000000000000000000000000600052604160045260246000fd5b61118782610f90565b810181811067ffffffffffffffff821117156111a6576111a561114f565b5b80604052505050565b60006111b9610ebb565b90506111c5828261117e565b919050565b600067ffffffffffffffff8211156111e5576111e461114f565b5b6111ee82610f90565b9050602081019050919050565b82818337600083830152505050565b600061121d611218846111ca565b6111af565b9050828152602081018484840111156112395761123861114a565b5b6112448482856111fb565b509392505050565b600082601f83011261126157611260611145565b5b813561127184826020860161120a565b91505092915050565b61128381610ffa565b811461128e57600080fd5b50565b6000813590506112a08161127a565b92915050565b6000806000606084860312156112bf576112be610ec5565b5b600084013567ffffffffffffffff8111156112dd576112dc610eca565b5b6112e98682870161124c565b93505060206112fa86828701610ef0565b925050604061130b86828701611291565b9150509250925092565b6000806040838503121561132c5761132b610ec5565b5b600061133a858286016110d5565b925050602061134b85828601610ef0565b9150509250929050565b600060208201905061136a6000830184611027565b92915050565b60006020828403121561138657611385610ec5565b5b6000611394848285016110d5565b91505092915050565b6113a6816110ac565b82525050565b60006020820190506113c1600083018461139d565b92915050565b7f596f7520617265206e6f7420616e20696e766573746f7220696e20746865204460008201527f414f210000000000000000000000000000000000000000000000000000000000602082015250565b6000611423602383610f4c565b915061142e826113c7565b604082019050919050565b6000602082019050818103600083015261145281611416565b9050919050565b7f596f75206861766520616c726561647920766f74656420666f7220746869732060008201527f70726f706f73616c000000000000000000000000000000000000000000000000602082015250565b60006114b5602883610f4c565b91506114c082611459565b604082019050919050565b600060208201905081810360008301526114e4816114a8565b9050919050565b7f566f74696e6720666f7220746869732070726f706f73616c206973206f766572600082015250565b6000611521602083610f4c565b915061152c826114eb565b602082019050919050565b6000602082019050818103600083015261155081611514565b9050919050565b7f4e487b7100000000000000000000000000000000000000000000000000000000600052601160045260246000fd5b600061159182610ecf565b915061159c83610ecf565b9250827fffffffffffffffffffffffffffffffffffffffffffffffffffffffffffffffff038211156115d1576115d0611557565b5b828201905092915050565b7f4e487b7100000000000000000000000000000000000000000000000000000000600052602260045260246000fd5b6000600282049050600182168061162357607f821691505b602082108103611636576116356115dc565b5b50919050565b7f4e6f7420656e6f75676820736861726573000000000000000000000000000000600082015250565b6000611672601183610f4c565b915061167d8261163c565b602082019050919050565b600060208201905081810360008301526116a181611665565b9050919050565b60006116b382610ecf565b91506116be83610ecf565b9250828210156116d1576116d0611557565b5b828203905092915050565b7f5468652070726f706f736572206973206e6f7420616e20696e766573746f7200600082015250565b6000611712601f83610f4c565b915061171d826116dc565b602082019050919050565b6000602082019050818103600083015261174181611705565b9050919050565b7f5265717565737465642066756e64696e672066726f6d20746869732070726f7060008201527f6f73616c2065786365656473207468652066756e6473206f662074686520444160208201527f4f00000000000000000000000000000000000000000000000000000000000000604082015250565b60006117ca604183610f4c565b91506117d582611748565b606082019050919050565b600060208201905081810360008301526117f9816117bd565b9050919050565b60008190508160005260206000209050919050565b60006020601f8301049050919050565b600082821b905092915050565b6000600883026118627fffffffffffffffffffffffffffffffffffffffffffffffffffffffffffffffff82611825565b61186c8683611825565b95508019841693508086168417925050509392505050565b6000819050919050565b60006118a96118a461189f84610ecf565b611884565b610ecf565b9050919050565b6000819050919050565b6118c38361188e565b6118d76118cf826118b0565b848454611832565b825550505050565b600090565b6118ec6118df565b6118f78184846118ba565b505050565b5b8181101561191b576119106000826118e4565b6001810190506118fd565b5050565b601f8211156119605761193181611800565b61193a84611815565b81016020851015611949578190505b61195d61195585611815565b8301826118fc565b50505b505050565b600082821c905092915050565b600061198360001984600802611965565b1980831691505092915050565b600061199c8383611972565b9150826002028217905092915050565b6119b582610f41565b67ffffffffffffffff8111156119ce576119cd61114f565b5b6119d8825461160b565b6119e382828561191f565b600060209050601f831160018114611a165760008415611a04578287015190505b611a0e8582611990565b865550611a76565b601f198416611a2486611800565b60005b82811015611a4c57848901518255600182019150602085019450602081019050611a27565b86831015611a695784890151611a65601f891682611972565b8355505b6001600288020188555050505b505050505050565b6000611a8982610ecf565b91507fffffffffffffffffffffffffffffffffffffffffffffffffffffffffffffffff8203611abb57611aba611557565b5b600182019050919050565b7f4e6f7420656e6f75676820617661696c61626c652066756e6473000000000000600082015250565b6000611afc601a83610f4c565b9150611b0782611ac6565b602082019050919050565b60006020820190508181036000830152611b2b81611aef565b9050919050565b6000611b3d82610ecf565b9150611b4883610ecf565b9250817fffffffffffffffffffffffffffffffffffffffffffffffffffffffffffffffff0483118215151615611b8157611b80611557565b5b828202905092915050565b7f54686520636f6e747269627574696f6e20706572696f64206973206f76657200600082015250565b6000611bc2601f83610f4c565b9150611bcd82611b8c565b602082019050919050565b60006020820190508181036000830152611bf181611bb5565b9050919050565b7f4e487b7100000000000000000000000000000000000000000000000000000000600052601260045260246000fd5b6000611c3282610ecf565b9150611c3d83610ecf565b925082611c4d57611c4c611bf8565b5b82820490509291505056fea26469706673582212209dbbfb7acabcccb4654b523ec358ab9a81f8a1b37cfca04326b791436d4b9b9b64736f6c634300080f0033",
  "immutableReferences": {},
  "source": "pragma solidity 0.8.15;\n\ncontract DAO {\n\n// variables //\nmapping(address=>bool) public isInvestor ;\nmapping (address=>uint) public shares;\nmapping (uint=>Proposal) public proposals;                  //a mapping to track the created proposals\nmapping (address=>mapping(uint=>bool)) public votes;        //stores a bool for if a certain address has voted for a specific proposal\nuint public totalShares;\nuint public availableFunds;\nuint public contributionEnd;                                //following the closed contribution model for this DAO contract, I define a time , after which, contribution is not possible\nuint public nextProposalId;\nuint public voteTime;\nuint public quorum;                                         //specifies the amount of votes needed for the proposal to pass\n\naddress public admin;\n\nstruct Proposal {                                            // each proposal represents a struct with the following data\n    uint id;\n    string name;\n    uint amount;\n    address payable proposalAddress;\n    uint votes;\n    uint end;\n    bool isExecuted;\n\n}\n\n//modifiers//\n\nmodifier onlyInvestor (){\n    require(isInvestor[msg.sender]==true, \"You are not an investor in the DAO!\");\n    _;\n}\n\n\n//constructor//\nconstructor (uint contributionTime) {\n    contributionEnd = block.timestamp + contributionTime; \n\n}\n //functions //\n\n function createProposal (string memory _name,uint _amount,address payable _proposalAddress) external  onlyInvestor{\n    require(isInvestor[msg.sender], \"The proposer is not an investor\");\n    require(availableFunds<=_amount, \"Requested funding from this proposal exceeds the funds of the DAO\"); \n    proposals[nextProposalId] = Proposal (\n        nextProposalId,\n        _name,\n        _amount,\n        _proposalAddress,\n         0,\n        block.timestamp + voteTime,\n        false\n    );\n    availableFunds -= _amount;                         //allocating funds for the proposal upon its creation\n    nextProposalId ++;\n }\n\n function vote (uint proposalId) external  onlyInvestor {\n    Proposal storage proposal = proposals[proposalId];\n    require (votes[msg.sender][proposalId]==false, \"You have already voted for this proposal\");\n    require (block.timestamp < proposal.end ,\"Voting for this proposal is over\");\n    votes[msg.sender][proposalId]==true;\n    proposal.votes += shares[msg.sender];           // I could also define it as shares[msg.sender]/totalShares but chose the former for simplicity reasons\n }\n\n\n function contribute () external payable {\n    require(block.timestamp < contributionEnd, \"The contribution period is over\");\n    availableFunds+=msg.value;\n    isInvestor[msg.sender]=true;\n    totalShares= msg.value/ 1 ether;           // I set the shares ratio as 1 share per ether deposited\n    shares[msg.sender] = msg.value/ 1 ether;\n }\n\n  function redeemShare (uint _amount ) external {\n    require (shares[msg.sender]>=_amount, \"Not enough shares\");\n    require (availableFunds >= _amount, \"Not enough available funds\");\n    shares[msg.sender] -= _amount;\n    availableFunds-=_amount;\n    payable(msg.sender).transfer(_amount * 1 ether);\n\n  }\n\n  function transferShare (uint _amount, address _to) external {\n   require (shares[msg.sender]>=_amount, \"Not enough shares\");\n   shares[msg.sender]-= _amount;\n   shares[_to] += _amount;\n   isInvestor[_to]= true;\n\n\n  }\n\n\n\n}",
  "sourcePath": "/Users/petartodorov/Desktop/coding/solidity/Dapp30/DAO/contracts/DAO.sol",
  "compiler": {
    "name": "solc",
    "version": "0.8.15+commit.e14f2714.Emscripten.clang"
  },
  "schemaVersion": "3.4.8",
  "updatedAt": "2022-08-25T23:16:40.858Z",
  "devdoc": {
    "kind": "dev",
    "methods": {},
    "version": 1
  },
  "userdoc": {
    "kind": "user",
    "methods": {},
    "version": 1
  }
}