{
  "contractName": "DAO",
  "abi": [
    {
      "inputs": [
        {
          "internalType": "uint256",
          "name": "contributionTime",
          "type": "uint256"
        },
        {
          "internalType": "uint256",
          "name": "_voteTime",
          "type": "uint256"
        },
        {
          "internalType": "uint256",
          "name": "_quorum",
          "type": "uint256"
        }
      ],
      "stateMutability": "nonpayable",
      "type": "constructor"
    },
    {
      "stateMutability": "payable",
      "type": "fallback",
      "payable": true
    },
    {
      "inputs": [],
      "name": "admin",
      "outputs": [
        {
          "internalType": "address",
          "name": "",
          "type": "address"
        }
      ],
      "stateMutability": "view",
      "type": "function",
      "constant": true
    },
    {
      "inputs": [],
      "name": "availableFunds",
      "outputs": [
        {
          "internalType": "uint256",
          "name": "",
          "type": "uint256"
        }
      ],
      "stateMutability": "view",
      "type": "function",
      "constant": true
    },
    {
      "inputs": [],
      "name": "contributionEnd",
      "outputs": [
        {
          "internalType": "uint256",
          "name": "",
          "type": "uint256"
        }
      ],
      "stateMutability": "view",
      "type": "function",
      "constant": true
    },
    {
      "inputs": [
        {
          "internalType": "address",
          "name": "",
          "type": "address"
        }
      ],
      "name": "isInvestor",
      "outputs": [
        {
          "internalType": "bool",
          "name": "",
          "type": "bool"
        }
      ],
      "stateMutability": "view",
      "type": "function",
      "constant": true
    },
    {
      "inputs": [],
      "name": "nextProposalId",
      "outputs": [
        {
          "internalType": "uint256",
          "name": "",
          "type": "uint256"
        }
      ],
      "stateMutability": "view",
      "type": "function",
      "constant": true
    },
    {
      "inputs": [
        {
          "internalType": "uint256",
          "name": "",
          "type": "uint256"
        }
      ],
      "name": "proposals",
      "outputs": [
        {
          "internalType": "uint256",
          "name": "id",
          "type": "uint256"
        },
        {
          "internalType": "string",
          "name": "name",
          "type": "string"
        },
        {
          "internalType": "uint256",
          "name": "amount",
          "type": "uint256"
        },
        {
          "internalType": "address payable",
          "name": "proposalAddress",
          "type": "address"
        },
        {
          "internalType": "uint256",
          "name": "votes",
          "type": "uint256"
        },
        {
          "internalType": "uint256",
          "name": "end",
          "type": "uint256"
        },
        {
          "internalType": "bool",
          "name": "isExecuted",
          "type": "bool"
        }
      ],
      "stateMutability": "view",
      "type": "function",
      "constant": true
    },
    {
      "inputs": [],
      "name": "quorum",
      "outputs": [
        {
          "internalType": "uint256",
          "name": "",
          "type": "uint256"
        }
      ],
      "stateMutability": "view",
      "type": "function",
      "constant": true
    },
    {
      "inputs": [
        {
          "internalType": "address",
          "name": "",
          "type": "address"
        }
      ],
      "name": "shares",
      "outputs": [
        {
          "internalType": "uint256",
          "name": "",
          "type": "uint256"
        }
      ],
      "stateMutability": "view",
      "type": "function",
      "constant": true
    },
    {
      "inputs": [],
      "name": "totalShares",
      "outputs": [
        {
          "internalType": "uint256",
          "name": "",
          "type": "uint256"
        }
      ],
      "stateMutability": "view",
      "type": "function",
      "constant": true
    },
    {
      "inputs": [],
      "name": "voteTime",
      "outputs": [
        {
          "internalType": "uint256",
          "name": "",
          "type": "uint256"
        }
      ],
      "stateMutability": "view",
      "type": "function",
      "constant": true
    },
    {
      "inputs": [
        {
          "internalType": "address",
          "name": "",
          "type": "address"
        },
        {
          "internalType": "uint256",
          "name": "",
          "type": "uint256"
        }
      ],
      "name": "votes",
      "outputs": [
        {
          "internalType": "bool",
          "name": "",
          "type": "bool"
        }
      ],
      "stateMutability": "view",
      "type": "function",
      "constant": true
    },
    {
      "inputs": [
        {
          "internalType": "string",
          "name": "_name",
          "type": "string"
        },
        {
          "internalType": "uint256",
          "name": "_amount",
          "type": "uint256"
        },
        {
          "internalType": "address payable",
          "name": "_proposalAddress",
          "type": "address"
        }
      ],
      "name": "createProposal",
      "outputs": [],
      "stateMutability": "nonpayable",
      "type": "function"
    },
    {
      "inputs": [
        {
          "internalType": "uint256",
          "name": "proposalId",
          "type": "uint256"
        }
      ],
      "name": "vote",
      "outputs": [],
      "stateMutability": "nonpayable",
      "type": "function"
    },
    {
      "inputs": [],
      "name": "contribute",
      "outputs": [],
      "stateMutability": "payable",
      "type": "function",
      "payable": true
    },
    {
      "inputs": [
        {
          "internalType": "uint256",
          "name": "_amount",
          "type": "uint256"
        }
      ],
      "name": "redeemShare",
      "outputs": [],
      "stateMutability": "nonpayable",
      "type": "function"
    },
    {
      "inputs": [
        {
          "internalType": "uint256",
          "name": "_amount",
          "type": "uint256"
        },
        {
          "internalType": "address",
          "name": "_to",
          "type": "address"
        }
      ],
      "name": "transferShare",
      "outputs": [],
      "stateMutability": "nonpayable",
      "type": "function"
    },
    {
      "inputs": [
        {
          "internalType": "uint256",
          "name": "proposalId",
          "type": "uint256"
        }
      ],
      "name": "executeProposal",
      "outputs": [],
      "stateMutability": "nonpayable",
      "type": "function"
    },
    {
      "inputs": [
        {
          "internalType": "uint256",
          "name": "_amount",
          "type": "uint256"
        },
        {
          "internalType": "address payable",
          "name": "_to",
          "type": "address"
        }
      ],
      "name": "withdraw",
      "outputs": [],
      "stateMutability": "nonpayable",
      "type": "function"
    }
  ],
  "bytecode": "0x60806040523480156200001157600080fd5b5060405162002527380380620025278339818101604052810190620000379190620000e3565b82426200004591906200016e565b60068190555033600a60006101000a81548173ffffffffffffffffffffffffffffffffffffffff021916908373ffffffffffffffffffffffffffffffffffffffff1602179055508060098190555081600881905550505050620001cb565b600080fd5b6000819050919050565b620000bd81620000a8565b8114620000c957600080fd5b50565b600081519050620000dd81620000b2565b92915050565b600080600060608486031215620000ff57620000fe620000a3565b5b60006200010f86828701620000cc565b93505060206200012286828701620000cc565b92505060406200013586828701620000cc565b9150509250925092565b7f4e487b7100000000000000000000000000000000000000000000000000000000600052601160045260246000fd5b60006200017b82620000a8565b91506200018883620000a8565b9250827fffffffffffffffffffffffffffffffffffffffffffffffffffffffffffffffff03821115620001c057620001bf6200013f565b5b828201905092915050565b61234c80620001db6000396000f3fe60806040526004361061010c5760003560e01c80636ac1e01f11610095578063ce7c2ac211610064578063ce7c2ac214610374578063cee2a9cf146103b1578063d151b516146103ee578063d7bb99ba14610419578063f851a440146104235761010d565b80636ac1e01f146102ba578063868643df146102e35780639f2524ee1461030c578063bcf93dd6146103495761010d565b80630d61b519116100dc5780630d61b519146101e55780631703a0181461020e5780632ab09d14146102395780633a98ef391461026457806346fcff4c1461028f5761010d565b8062f714ce146101275780630121b93f14610150578063013cf08b14610179578063039383e6146101bc5761010d565b5b346005600082825461011f91906112be565b925050819055005b34801561013357600080fd5b5061014e600480360381019061014991906113b2565b61044e565b005b34801561015c57600080fd5b50610177600480360381019061017291906113f2565b6104ec565b005b34801561018557600080fd5b506101a0600480360381019061019b91906113f2565b61073e565b6040516101b397969594939291906114f1565b60405180910390f35b3480156101c857600080fd5b506101e360048036038101906101de91906115a5565b610835565b005b3480156101f157600080fd5b5061020c600480360381019061020791906113f2565b6109be565b005b34801561021a57600080fd5b50610223610b9c565b60405161023091906115e5565b60405180910390f35b34801561024557600080fd5b5061024e610ba2565b60405161025b91906115e5565b60405180910390f35b34801561027057600080fd5b50610279610ba8565b60405161028691906115e5565b60405180910390f35b34801561029b57600080fd5b506102a4610bae565b6040516102b191906115e5565b60405180910390f35b3480156102c657600080fd5b506102e160048036038101906102dc9190611735565b610bb4565b005b3480156102ef57600080fd5b5061030a600480360381019061030591906113f2565b610e65565b005b34801561031857600080fd5b50610333600480360381019061032e91906117a4565b610ff8565b60405161034091906117e4565b60405180910390f35b34801561035557600080fd5b5061035e611027565b60405161036b91906115e5565b60405180910390f35b34801561038057600080fd5b5061039b600480360381019061039691906117ff565b61102d565b6040516103a891906115e5565b60405180910390f35b3480156103bd57600080fd5b506103d860048036038101906103d391906117ff565b611045565b6040516103e591906117e4565b60405180910390f35b3480156103fa57600080fd5b50610403611065565b60405161041091906115e5565b60405180910390f35b61042161106b565b005b34801561042f57600080fd5b506104386111b6565b604051610445919061183b565b60405180910390f35b600a60009054906101000a900473ffffffffffffffffffffffffffffffffffffffff1673ffffffffffffffffffffffffffffffffffffffff163373ffffffffffffffffffffffffffffffffffffffff16146104de576040517f08c379a00000000000000000000000000000000000000000000000000000000081526004016104d5906118a2565b60405180910390fd5b6104e882826111dc565b5050565b600115156000803373ffffffffffffffffffffffffffffffffffffffff1673ffffffffffffffffffffffffffffffffffffffff16815260200190815260200160002060009054906101000a900460ff1615151461057e576040517f08c379a000000000000000000000000000000000000000000000000000000000815260040161057590611934565b60405180910390fd5b600060026000838152602001908152602001600020905060001515600360003373ffffffffffffffffffffffffffffffffffffffff1673ffffffffffffffffffffffffffffffffffffffff168152602001908152602001600020600084815260200190815260200160002060009054906101000a900460ff16151514610639576040517f08c379a0000000000000000000000000000000000000000000000000000000008152600401610630906119c6565b60405180910390fd5b8060050154421061067f576040517f08c379a000000000000000000000000000000000000000000000000000000000815260040161067690611a32565b60405180910390fd5b60011515600360003373ffffffffffffffffffffffffffffffffffffffff1673ffffffffffffffffffffffffffffffffffffffff168152602001908152602001600020600084815260200190815260200160002060009054906101000a90505050600160003373ffffffffffffffffffffffffffffffffffffffff1673ffffffffffffffffffffffffffffffffffffffff1681526020019081526020016000205481600401600082825461073391906112be565b925050819055505050565b600260205280600052604060002060009150905080600001549080600101805461076790611a81565b80601f016020809104026020016040519081016040528092919081815260200182805461079390611a81565b80156107e05780601f106107b5576101008083540402835291602001916107e0565b820191906000526020600020905b8154815290600101906020018083116107c357829003601f168201915b5050505050908060020154908060030160009054906101000a900473ffffffffffffffffffffffffffffffffffffffff16908060040154908060050154908060060160009054906101000a900460ff16905087565b81600160003373ffffffffffffffffffffffffffffffffffffffff1673ffffffffffffffffffffffffffffffffffffffff1681526020019081526020016000205410156108b7576040517f08c379a00000000000000000000000000000000000000000000000000000000081526004016108ae90611afe565b60405180910390fd5b81600160003373ffffffffffffffffffffffffffffffffffffffff1673ffffffffffffffffffffffffffffffffffffffff16815260200190815260200160002060008282546109069190611b1e565b9250508190555081600160008373ffffffffffffffffffffffffffffffffffffffff1673ffffffffffffffffffffffffffffffffffffffff168152602001908152602001600020600082825461095c91906112be565b9250508190555060016000808373ffffffffffffffffffffffffffffffffffffffff1673ffffffffffffffffffffffffffffffffffffffff16815260200190815260200160002060006101000a81548160ff0219169083151502179055505050565b600a60009054906101000a900473ffffffffffffffffffffffffffffffffffffffff1673ffffffffffffffffffffffffffffffffffffffff163373ffffffffffffffffffffffffffffffffffffffff1614610a4e576040517f08c379a0000000000000000000000000000000000000000000000000000000008152600401610a45906118a2565b60405180910390fd5b6000600260008381526020019081526020016000209050600015158160060160009054906101000a900460ff16151514610abd576040517f08c379a0000000000000000000000000000000000000000000000000000000008152600401610ab490611bc4565b60405180910390fd5b4281600501541115610b04576040517f08c379a0000000000000000000000000000000000000000000000000000000008152600401610afb90611c56565b60405180910390fd5b60095460646004548360040154610b1b9190611ca5565b610b259190611cd6565b1015610b66576040517f08c379a0000000000000000000000000000000000000000000000000000000008152600401610b5d90611da2565b60405180910390fd5b610b9881600201548260030160009054906101000a900473ffffffffffffffffffffffffffffffffffffffff166111dc565b5050565b60095481565b60075481565b60045481565b60055481565b600115156000803373ffffffffffffffffffffffffffffffffffffffff1673ffffffffffffffffffffffffffffffffffffffff16815260200190815260200160002060009054906101000a900460ff16151514610c46576040517f08c379a0000000000000000000000000000000000000000000000000000000008152600401610c3d90611934565b60405180910390fd5b6000803373ffffffffffffffffffffffffffffffffffffffff1673ffffffffffffffffffffffffffffffffffffffff16815260200190815260200160002060009054906101000a900460ff16610cd1576040517f08c379a0000000000000000000000000000000000000000000000000000000008152600401610cc890611e0e565b60405180910390fd5b816005541015610d16576040517f08c379a0000000000000000000000000000000000000000000000000000000008152600401610d0d90611ec6565b60405180910390fd5b6040518060e0016040528060075481526020018481526020018381526020018273ffffffffffffffffffffffffffffffffffffffff1681526020016000815260200160085442610d6691906112be565b815260200160001515815250600260006007548152602001908152602001600020600082015181600001556020820151816001019081610da69190612092565b506040820151816002015560608201518160030160006101000a81548173ffffffffffffffffffffffffffffffffffffffff021916908373ffffffffffffffffffffffffffffffffffffffff1602179055506080820151816004015560a0820151816005015560c08201518160060160006101000a81548160ff0219169083151502179055509050508160056000828254610e419190611b1e565b9250508190555060076000815480929190610e5b90612164565b9190505550505050565b80600160003373ffffffffffffffffffffffffffffffffffffffff1673ffffffffffffffffffffffffffffffffffffffff168152602001908152602001600020541015610ee7576040517f08c379a0000000000000000000000000000000000000000000000000000000008152600401610ede90611afe565b60405180910390fd5b806005541015610f2c576040517f08c379a0000000000000000000000000000000000000000000000000000000008152600401610f23906121f8565b60405180910390fd5b80600160003373ffffffffffffffffffffffffffffffffffffffff1673ffffffffffffffffffffffffffffffffffffffff1681526020019081526020016000206000828254610f7b9190611b1e565b925050819055508060056000828254610f949190611b1e565b925050819055503373ffffffffffffffffffffffffffffffffffffffff166108fc670de0b6b3a764000083610fc99190611cd6565b9081150290604051600060405180830381858888f19350505050158015610ff4573d6000803e3d6000fd5b5050565b60036020528160005260406000206020528060005260406000206000915091509054906101000a900460ff1681565b60085481565b60016020528060005260406000206000915090505481565b60006020528060005260406000206000915054906101000a900460ff1681565b60065481565b60065442106110af576040517f08c379a00000000000000000000000000000000000000000000000000000000081526004016110a690612264565b60405180910390fd5b34600560008282546110c191906112be565b9250508190555060016000803373ffffffffffffffffffffffffffffffffffffffff1673ffffffffffffffffffffffffffffffffffffffff16815260200190815260200160002060006101000a81548160ff021916908315150217905550670de0b6b3a7640000346111339190611ca5565b6004600082825461114491906112be565b92505081905550670de0b6b3a76400003461115f9190611ca5565b600160003373ffffffffffffffffffffffffffffffffffffffff1673ffffffffffffffffffffffffffffffffffffffff16815260200190815260200160002060008282546111ad91906112be565b92505081905550565b600a60009054906101000a900473ffffffffffffffffffffffffffffffffffffffff1681565b600554821115611221576040517f08c379a0000000000000000000000000000000000000000000000000000000008152600401611218906122f6565b60405180910390fd5b81600560008282546112339190611b1e565b925050819055508073ffffffffffffffffffffffffffffffffffffffff166108fc839081150290604051600060405180830381858888f19350505050158015611280573d6000803e3d6000fd5b505050565b6000819050919050565b7f4e487b7100000000000000000000000000000000000000000000000000000000600052601160045260246000fd5b60006112c982611285565b91506112d483611285565b9250827fffffffffffffffffffffffffffffffffffffffffffffffffffffffffffffffff038211156113095761130861128f565b5b828201905092915050565b6000604051905090565b600080fd5b600080fd5b61133181611285565b811461133c57600080fd5b50565b60008135905061134e81611328565b92915050565b600073ffffffffffffffffffffffffffffffffffffffff82169050919050565b600061137f82611354565b9050919050565b61138f81611374565b811461139a57600080fd5b50565b6000813590506113ac81611386565b92915050565b600080604083850312156113c9576113c861131e565b5b60006113d78582860161133f565b92505060206113e88582860161139d565b9150509250929050565b6000602082840312156114085761140761131e565b5b60006114168482850161133f565b91505092915050565b61142881611285565b82525050565b600081519050919050565b600082825260208201905092915050565b60005b8381101561146857808201518184015260208101905061144d565b83811115611477576000848401525b50505050565b6000601f19601f8301169050919050565b60006114998261142e565b6114a38185611439565b93506114b381856020860161144a565b6114bc8161147d565b840191505092915050565b6114d081611374565b82525050565b60008115159050919050565b6114eb816114d6565b82525050565b600060e082019050611506600083018a61141f565b8181036020830152611518818961148e565b9050611527604083018861141f565b61153460608301876114c7565b611541608083018661141f565b61154e60a083018561141f565b61155b60c08301846114e2565b98975050505050505050565b600061157282611354565b9050919050565b61158281611567565b811461158d57600080fd5b50565b60008135905061159f81611579565b92915050565b600080604083850312156115bc576115bb61131e565b5b60006115ca8582860161133f565b92505060206115db85828601611590565b9150509250929050565b60006020820190506115fa600083018461141f565b92915050565b600080fd5b600080fd5b7f4e487b7100000000000000000000000000000000000000000000000000000000600052604160045260246000fd5b6116428261147d565b810181811067ffffffffffffffff821117156116615761166061160a565b5b80604052505050565b6000611674611314565b90506116808282611639565b919050565b600067ffffffffffffffff8211156116a05761169f61160a565b5b6116a98261147d565b9050602081019050919050565b82818337600083830152505050565b60006116d86116d384611685565b61166a565b9050828152602081018484840111156116f4576116f3611605565b5b6116ff8482856116b6565b509392505050565b600082601f83011261171c5761171b611600565b5b813561172c8482602086016116c5565b91505092915050565b60008060006060848603121561174e5761174d61131e565b5b600084013567ffffffffffffffff81111561176c5761176b611323565b5b61177886828701611707565b93505060206117898682870161133f565b925050604061179a8682870161139d565b9150509250925092565b600080604083850312156117bb576117ba61131e565b5b60006117c985828601611590565b92505060206117da8582860161133f565b9150509250929050565b60006020820190506117f960008301846114e2565b92915050565b6000602082840312156118155761181461131e565b5b600061182384828501611590565b91505092915050565b61183581611567565b82525050565b6000602082019050611850600083018461182c565b92915050565b7f596f7520617265206e6f74207468652061646d696e207468652044414f210000600082015250565b600061188c601e83611439565b915061189782611856565b602082019050919050565b600060208201905081810360008301526118bb8161187f565b9050919050565b7f596f7520617265206e6f7420616e20696e766573746f7220696e20746865204460008201527f414f210000000000000000000000000000000000000000000000000000000000602082015250565b600061191e602383611439565b9150611929826118c2565b604082019050919050565b6000602082019050818103600083015261194d81611911565b9050919050565b7f596f75206861766520616c726561647920766f74656420666f7220746869732060008201527f70726f706f73616c000000000000000000000000000000000000000000000000602082015250565b60006119b0602883611439565b91506119bb82611954565b604082019050919050565b600060208201905081810360008301526119df816119a3565b9050919050565b7f566f74696e6720666f7220746869732070726f706f73616c206973206f766572600082015250565b6000611a1c602083611439565b9150611a27826119e6565b602082019050919050565b60006020820190508181036000830152611a4b81611a0f565b9050919050565b7f4e487b7100000000000000000000000000000000000000000000000000000000600052602260045260246000fd5b60006002820490506001821680611a9957607f821691505b602082108103611aac57611aab611a52565b5b50919050565b7f4e6f7420656e6f75676820736861726573000000000000000000000000000000600082015250565b6000611ae8601183611439565b9150611af382611ab2565b602082019050919050565b60006020820190508181036000830152611b1781611adb565b9050919050565b6000611b2982611285565b9150611b3483611285565b925082821015611b4757611b4661128f565b5b828203905092915050565b7f746869732070726f706f73616c2068617320616c7265616479206265656e206560008201527f7865637574656400000000000000000000000000000000000000000000000000602082015250565b6000611bae602783611439565b9150611bb982611b52565b604082019050919050565b60006020820190508181036000830152611bdd81611ba1565b9050919050565b7f766f74696e6720666f7220746869732070726f706f73616c20686173206e6f7460008201527f20656e6465640000000000000000000000000000000000000000000000000000602082015250565b6000611c40602683611439565b9150611c4b82611be4565b604082019050919050565b60006020820190508181036000830152611c6f81611c33565b9050919050565b7f4e487b7100000000000000000000000000000000000000000000000000000000600052601260045260246000fd5b6000611cb082611285565b9150611cbb83611285565b925082611ccb57611cca611c76565b5b828204905092915050565b6000611ce182611285565b9150611cec83611285565b9250817fffffffffffffffffffffffffffffffffffffffffffffffffffffffffffffffff0483118215151615611d2557611d2461128f565b5b828202905092915050565b7f566f74657320617265206c657373207468616e20746865206f6e652c7365742060008201527f6279207468652071756f72756d207661726961626c6500000000000000000000602082015250565b6000611d8c603683611439565b9150611d9782611d30565b604082019050919050565b60006020820190508181036000830152611dbb81611d7f565b9050919050565b7f5468652070726f706f736572206973206e6f7420616e20696e766573746f7200600082015250565b6000611df8601f83611439565b9150611e0382611dc2565b602082019050919050565b60006020820190508181036000830152611e2781611deb565b9050919050565b7f5265717565737465642066756e64696e672066726f6d20746869732070726f7060008201527f6f73616c2065786365656473207468652066756e6473206f662074686520444160208201527f4f00000000000000000000000000000000000000000000000000000000000000604082015250565b6000611eb0604183611439565b9150611ebb82611e2e565b606082019050919050565b60006020820190508181036000830152611edf81611ea3565b9050919050565b60008190508160005260206000209050919050565b60006020601f8301049050919050565b600082821b905092915050565b600060088302611f487fffffffffffffffffffffffffffffffffffffffffffffffffffffffffffffffff82611f0b565b611f528683611f0b565b95508019841693508086168417925050509392505050565b6000819050919050565b6000611f8f611f8a611f8584611285565b611f6a565b611285565b9050919050565b6000819050919050565b611fa983611f74565b611fbd611fb582611f96565b848454611f18565b825550505050565b600090565b611fd2611fc5565b611fdd818484611fa0565b505050565b5b8181101561200157611ff6600082611fca565b600181019050611fe3565b5050565b601f8211156120465761201781611ee6565b61202084611efb565b8101602085101561202f578190505b61204361203b85611efb565b830182611fe2565b50505b505050565b600082821c905092915050565b60006120696000198460080261204b565b1980831691505092915050565b60006120828383612058565b9150826002028217905092915050565b61209b8261142e565b67ffffffffffffffff8111156120b4576120b361160a565b5b6120be8254611a81565b6120c9828285612005565b600060209050601f8311600181146120fc57600084156120ea578287015190505b6120f48582612076565b86555061215c565b601f19841661210a86611ee6565b60005b828110156121325784890151825560018201915060208501945060208101905061210d565b8683101561214f578489015161214b601f891682612058565b8355505b6001600288020188555050505b505050505050565b600061216f82611285565b91507fffffffffffffffffffffffffffffffffffffffffffffffffffffffffffffffff82036121a1576121a061128f565b5b600182019050919050565b7f4e6f7420656e6f75676820617661696c61626c652066756e6473000000000000600082015250565b60006121e2601a83611439565b91506121ed826121ac565b602082019050919050565b60006020820190508181036000830152612211816121d5565b9050919050565b7f54686520636f6e747269627574696f6e20706572696f64206973206f76657200600082015250565b600061224e601f83611439565b915061225982612218565b602082019050919050565b6000602082019050818103600083015261227d81612241565b9050919050565b7f416d6f756e74206578636565642074686520617661696c61626c652066756e6460008201527f7320696e207468652044414f0000000000000000000000000000000000000000602082015250565b60006122e0602c83611439565b91506122eb82612284565b604082019050919050565b6000602082019050818103600083015261230f816122d3565b905091905056fea2646970667358221220d4a5296cb3be6ccabe6eb85237c400c18f42f4843d26cfce7d14607842d58b7364736f6c634300080f0033",
  "immutableReferences": {},
  "source": "pragma solidity 0.8.15;\n\ncontract DAO {\n\n// variables //\nmapping(address=>bool) public isInvestor ;\nmapping (address=>uint) public shares;\nmapping (uint=>Proposal) public proposals;                  //a mapping to track the created proposals\nmapping (address=>mapping(uint=>bool)) public votes;        //stores a bool for if a certain address has voted for a specific proposal\nuint public totalShares;\nuint public availableFunds;\nuint public contributionEnd;                                //following the closed contribution model for this DAO contract, I define a time , after which, contribution is not possible\nuint public nextProposalId;\nuint public voteTime;\nuint public quorum;                                         //specifies the amount of votes needed for the proposal to pass. Must be an uint between 0 and 100 included\n\naddress public admin;\n\nstruct Proposal {                                            // each proposal represents a struct with the following data\n    uint id;\n    string name;\n    uint amount;\n    address payable proposalAddress;\n    uint votes;\n    uint end;\n    bool isExecuted;\n\n}\n\n//modifiers//\n\nmodifier onlyInvestor (){\n    require(isInvestor[msg.sender]==true, \"You are not an investor in the DAO!\");\n    _;\n}\n\nmodifier onlyAdmin () {\n        require(msg.sender ==admin, \"You are not the admin the DAO!\");\n    _;\n}\n\n\n//constructor//\nconstructor (uint contributionTime,uint _voteTime, uint _quorum)  {\n    contributionEnd = block.timestamp + contributionTime; \n    admin=msg.sender;\n    quorum=_quorum;\n    voteTime=_voteTime;\n\n\n}\n //functions //\n\n function createProposal (string memory _name,uint _amount,address payable _proposalAddress) external  onlyInvestor{\n    require(isInvestor[msg.sender], \"The proposer is not an investor\");\n    require(availableFunds>=_amount, \"Requested funding from this proposal exceeds the funds of the DAO\"); \n    proposals[nextProposalId] = Proposal (\n        nextProposalId,\n        _name,\n        _amount,\n        _proposalAddress,\n         0,\n        block.timestamp + voteTime,\n        false\n    );\n    availableFunds -= _amount;                         //allocating funds for the proposal upon its creation\n    nextProposalId ++;\n }\n\n function vote (uint proposalId) external  onlyInvestor {\n    Proposal storage proposal = proposals[proposalId];\n    require (votes[msg.sender][proposalId]==false, \"You have already voted for this proposal\");\n    require (block.timestamp < proposal.end ,\"Voting for this proposal is over\");\n    votes[msg.sender][proposalId]==true;\n    proposal.votes += shares[msg.sender];           // I could also define it as shares[msg.sender]/totalShares but chose the former for simplicity reasons\n }\n\n\n function contribute () external payable {\n    require(block.timestamp < contributionEnd, \"The contribution period is over\");\n    availableFunds+=msg.value;\n    isInvestor[msg.sender]=true;\n    totalShares+= msg.value/ 1 ether;           // I set the shares ratio as 1 share per ether deposited\n    shares[msg.sender] += msg.value/ 1 ether;\n }\n\n  function redeemShare (uint _amount ) external {\n    require (shares[msg.sender]>=_amount, \"Not enough shares\");\n    require (availableFunds >= _amount, \"Not enough available funds\");\n    shares[msg.sender] -= _amount;\n    availableFunds-=_amount;\n    payable(msg.sender).transfer(_amount * 1 ether);\n\n  }\n\n  function transferShare (uint _amount, address _to) external {\n   require (shares[msg.sender]>=_amount, \"Not enough shares\");\n   shares[msg.sender]-= _amount;\n   shares[_to] += _amount;\n   isInvestor[_to]= true;\n\n\n  }\n\n  function executeProposal (uint proposalId) external onlyAdmin {\n    Proposal storage proposal=proposals[proposalId];\n    require (proposal.isExecuted==false,\"this proposal has already been executed\");\n    require (proposal.end  <= block.timestamp,\"voting for this proposal has not ended\");\n    require ((proposal.votes/totalShares)*100 >=quorum, \"Votes are less than the one,set by the quorum variable\");                        // as quorum is an uint from 0 to 100, I calculate the the fraction of the votes from the total shares and then I multiply it by 100 to conver it into percent and compare it to the quorum variable\n    transferEther(proposal.amount, proposal.proposalAddress);\n  }\n\n  function transferEther (uint _amount, address payable _address) private {\n    require(_amount <= availableFunds, \"Amount exceed the available funds in the DAO\");\n    availableFunds-=_amount;\n    _address.transfer(_amount);\n  }\n\n  function withdraw (uint _amount, address payable _to) external onlyAdmin {                                                 // Altohugh a controversial function , as the admin may be corrupted, I believe it is better to have an option of transfering the funds than have them \"stuck\" forever in the contract, in case of a bug.\n    transferEther( _amount, _to);\n  }\n\n  fallback () external payable {\n    availableFunds+=msg.value;\n  }\n\n\n\n\n}",
  "sourcePath": "/Users/petartodorov/Desktop/coding/solidity/Dapp30/DAO/contracts/DAO.sol",
  "compiler": {
    "name": "solc",
    "version": "0.8.15+commit.e14f2714.Emscripten.clang"
  },
  "schemaVersion": "3.4.8",
  "updatedAt": "2022-08-26T15:24:51.917Z",
  "networkType": "ethereum",
  "devdoc": {
    "kind": "dev",
    "methods": {},
    "version": 1
  },
  "userdoc": {
    "kind": "user",
    "methods": {},
    "version": 1
  }
}